:100000000C942A000C94D30D0C94000E0C942D0E1D
:100010000C9447000C940B1D0C94951D0C944700F8
:100020000C9447000C94851D0C9447000C94DE1C26
:100030000C9447000C94D11E0C9447000C9447007C
:100040000C9447000C9447000C9447000C94470014
:100050000C94470011241FBECFE5D8E0DEBFCDBF12
:1000600011E0A0E6B0E0EAE8FDE502C005900D92DF
:10007000AC36B107D9F711E0ACE6B1E001C01D9292
:10008000A63BB107E1F70E942F2E0C94C32E0C94CF
:100090000000EF92FF920F93DF93CF93CDB7DEB7BF
:1000A00060970FB6F894DEBF0FBECDBFA82F002318
:1000B00009F461C07E010894E11CF11C88E0F7019D
:1000C00011928A95E9F729833A834B835C836D8388
:1000D0007E83AF83988780E2801BE82FFF27E7FDB0
:1000E000F09549815A816B817C81181684F01986BC
:1000F0001A861B861C86882799278E1B9F0B04C097
:10010000440F551F661F771F8A95D2F728C0202FEE
:10011000332727FD3095DB01CA01022E04C0880F6A
:10012000991FAA1FBB1F0A94D2F789879A87AB87AA
:10013000BC8704C07695679557954795EA95D2F7A1
:100140008D819E81AF81B88504C0880F991FAA1F39
:10015000BB1F2A95D2F7482B592B6A2B7B2B4D8737
:100160005E876F87788B29853A854B855C856D85A1
:100170007E85AF8598898A2F60960FB6F894DEBF8A
:100180000FBECDBFCF91DF910F91FF90EF900895FB
:10019000EF92FF920F931F937B018C0120E030E0E0
:1001A00040E05FE40E94500588238CF0C801B7014D
:1001B00020E030E040E05FE40E941C030E940E0655
:1001C0009B01AC01205030404040504806C0C8015F
:1001D000B7010E940E069B01AC01B901CA011F9133
:1001E0000F91FF90EF900895A2E0B0E0EAEFF0E009
:1001F0000C948C2E122FB32EA42E952E862E372ED5
:10020000282E9A83C22ED32EE42EF52EA701960116
:1002100060E070E080E090E02117A1F43B1591F4DC
:100220004A1581F4591571F4681561F4731551F488
:10023000821541F4AA819A1729F4C701B6010E94D8
:100240006206AAC0212F3B2D4A2D592D682D732DF2
:10025000822D9A8100E20E94DB06C901DA0180301A
:10026000E0E09E07E1E0AE07E0E0BE0780F48F3FEC
:100270009105A105B10531F028F028E030E040E01B
:1002800050E016C020E030E040E050E011C0803087
:10029000F0E09F07F0E0AF07F1E0BF0728F028E1AA
:1002A00030E040E050E004C020E130E040E050E0C9
:1002B000022E04C0B695A795979587950A94D2F714
:1002C000FC01E859FF4F808129013A01480E511C79
:1002D000611C711C4982212F3B2D4A2D592D682DFF
:1002E000732D822D9A81042D0E94DB06C901DA014B
:1002F0004C015D0180E290E08419950904C0CC0CAA
:10030000DD1CEE1CFF1C8A95D2F7C114D104E10458
:10031000F10441F081E090E0A0E0B0E0882A992A61
:10032000AA2ABB2A90E2491651046104710459F4C7
:100330000F2EF0E0EF2EF0E0FF2EF0E80F2FFFE49D
:100340001F2FF02D21C0AFE14A1651046104710442
:1003500059F40F2EF0E0EF2EF0E0FF2EF0E00F2F1B
:10036000FFE41F2FF02D10C061E070E080E090E00E
:10037000098004C0660F771F881F991F0A94D2F75F
:100380000E94B0057B018C01C501B4010E94620688
:10039000A80197010E947A032296E2E10C94A82E0C
:1003A000A0E0B0E0E6EDF1E00C948C2EDC012B0136
:1003B000FA019C91923008F439C1EB0188818230B6
:1003C00008F433C1943069F4843009F02FC11196D8
:1003D0009C9111978981981709F428C1A0E6B0E093
:1003E00025C1843009F421C18230A9F4923009F08A
:1003F0001DC19A01AD0188E0EA010990AE01E90151
:1004000009929E018150C1F7E201898111969C9168
:100410008923818308C1923009F407C112962D9077
:100420003C901397EB018A819B811496AD90BD900F
:10043000CD90DC901797EC80FD800E811F8191019B
:10044000281B390BB90137FF04C066277727621BC9
:10045000730B603271050CF061C0121613066CF557
:1004600037014801062E04C09694879477946794C8
:100470000A94D2F721E030E040E050E004C0220FBF
:10048000331F441F551F6A95D2F72150304040401A
:1004900050402E213F214023512321153105410594
:1004A000510521F021E030E040E050E079018A017F
:1004B000E628F728082919293CC0232BD1F1260E5C
:1004C000371E35014601062E04C096948794779412
:1004D00067940A94D2F721E030E040E050E004C095
:1004E000220F331F441F551F6A95D2F72150304009
:1004F000404050402A213B214C215D2121153105EE
:100500004105510521F021E030E040E050E0590183
:100510006A01A628B728C828D9280BC082159305D8
:100520002CF01C01AA24BB24650103C0EE24FF2487
:10053000870111969C91D20111968C91981709F41C
:1005400045C0992339F0A80197012A193B094C09A4
:100550005D0906C0A60195012E193F09400B510BFC
:1005600057FD08C01182338222822483358346835B
:1005700057831DC081E08183338222828827992797
:10058000DC01821B930BA40BB50B84839583A6839C
:10059000B7830DC0220F331F441F551F248335839B
:1005A0004683578382819381019793838283248139
:1005B000358146815781DA01C9010197A109B10945
:1005C0008F5F9F4FAF4FBF4328F30BC091833382A0
:1005D0002282EA0CFB1C0C1D1D1DE482F5820683A1
:1005E000178383E08083248135814681578157FFBB
:1005F0001AC0C901AA2797FDA095BA2F81709070E3
:10060000A070B0705695479537952795822B932B00
:10061000A42BB52B84839583A683B7838281938192
:10062000019693838283DF0101C0D201CD01CDB752
:10063000DEB7E2E10C94A82EA0E2B0E0E2E2F3E043
:100640000C94982E69837A838B839C832D833E83BD
:100650004F835887E9E0EE2EF12CEC0EFD1ECE0103
:100660000196B7010E947E088E010F5E1F4FCE01DA
:100670000596B8010E947E088A8991E089278A8BB5
:10068000C701B801AE01475E5F4F0E94D0010E94D2
:10069000A907A096E6E00C94B42EA0E2B0E0E3E552
:1006A000F3E00C94982E69837A838B839C832D834B
:1006B0003E834F835887F9E0EF2EF12CEC0EFD1EA0
:1006C000CE010196B7010E947E088E010F5E1F4F7A
:1006D000CE010596B8010E947E08C701B801AE019F
:1006E000475E5F4F0E94D0010E94A907A096E6E0F6
:1006F0000C94B42EA0E2B0E0E0E8F3E00C948C2E71
:1007000069837A838B839C832D833E834F835887B1
:10071000CE010196BE01675F7F4F0E947E08CE0129
:100720000596BE016F5E7F4F0E947E0899859230CC
:1007300088F089898230C8F0943019F4823051F4FD
:1007400004C0843029F4923081F480E690E0C6C081
:10075000923049F420E09A858A89981321E02A870B
:10076000CE010996BBC0823049F420E09A858A897F
:10077000981321E02A8BCE014196B0C02D843E848F
:100780004F8458886D887E888F88988CEE24FF244B
:100790008701AA24BB24650140E050E060E070E0DE
:1007A000E0E0F0E0C10181709070892BE9F0E60C87
:1007B000F71C081D191D9A01AB012A0D3B1D4C1D8C
:1007C0005D1D80E090E0A0E0B0E0E614F7040805CD
:1007D000190520F481E090E0A0E0B0E0BA01A901A1
:1007E000480F591F6A1F7B1FAA0CBB1CCC1CDD1CA9
:1007F00097FE08C081E090E0A0E0B0E0A82AB92A06
:10080000CA2ADB2A3196E032F10549F0660C771CE2
:10081000881C991C5694479437942794C3CFFA8523
:10082000EA892B893C898B859C85280F391F2E5F8F
:100830003F4F17C0CA0181709070892B61F01695E7
:100840000795F794E79480E090E0A0E0B0E8E82A0C
:10085000F92A0A2B1B2B76956795579547952F5F9D
:100860003F4F77FDE7CF0CC0440F551F661F771F22
:1008700017FD4160EE0CFF1C001F111F215030407E
:10088000403090E0590790E0690790E4790760F301
:100890002B8F3C8FDB01CA018F779070A070B070F6
:1008A00080349105A105B10561F447FD0AC0E1144A
:1008B000F1040105110529F0405C5F4F6F4F7F4F38
:1008C00040781A8EFE1711F081E08A8F4D8F5E8F6F
:1008D0006F8F78A383E0898FCE0149960E94A90784
:1008E000A096E2E10C94A82EA8E1B0E0EAE7F4E0DB
:1008F0000C94942E69837A838B839C832D833E830F
:100900004F835887B9E0EB2EF12CEC0EFD1ECE0183
:100910000196B7010E947E088E010F5E1F4FCE0127
:100920000596B8010E947E082985223008F47EC011
:100930003989323010F4B8017CC08A859A898927B8
:100940008A87243011F0223031F4231709F06EC069
:1009500060E670E06EC0343039F41D861E861F8656
:10096000188A1C861B8604C0323021F484E08987F3
:10097000B7015FC02B853C858B899C89281B390B6F
:100980003C872B87ED84FE840F851889AD88BE884F
:10099000CF88D88CEA14FB040C051D0540F4EE0C3E
:1009A000FF1C001F111F215030403C872B8720E087
:1009B00030E040E050E080E090E0A0E0B0E460E0B3
:1009C00070E0EA14FB040C051D0540F0282B392BC0
:1009D0004A2B5B2BEA18FB080C091D09B695A79555
:1009E00097958795EE0CFF1C001F111F6F5F7F4FBF
:1009F0006F31710531F7DA01C9018F779070A070FE
:100A0000B07080349105A105B10561F427FD0AC0DD
:100A1000E114F1040105110529F0205C3F4F4F4F0F
:100A20005F4F20782D873E874F87588BBE01675FC9
:100A30007F4FCB010E94A9076896EAE00C94B02E84
:100A4000A8E1B0E0E6E2F5E00C94982E69837A83A1
:100A50008B839C832D833E834F83588789E0E82EC8
:100A6000F12CEC0EFD1ECE010196B7010E947E080E
:100A70008E010F5E1F4FCE010596B8010E947E08C1
:100A80008985823040F08989823028F0C701B80119
:100A90000E94F60801C08FEF6896E6E00C94B42E31
:100AA000A8E1B0E0E6E5F5E00C94982E69837A833E
:100AB0008B839C832D833E834F83588789E0E82E68
:100AC000F12CEC0EFD1ECE010196B7010E947E08AE
:100AD0008E010F5E1F4FCE010596B8010E947E0861
:100AE0008985823040F08989823028F0C701B801B9
:100AF0000E94F60801C08FEF6896E6E00C94B42ED1
:100B0000A8E1B0E0E6E8F5E00C94982E69837A83DA
:100B10008B839C832D833E834F83588789E0E82E07
:100B2000F12CEC0EFD1ECE010196B7010E947E084D
:100B30008E010F5E1F4FCE010596B8010E947E0800
:100B40008985823040F08989823028F0C701B80158
:100B50000E94F60801C081E06896E6E00C94B42E8D
:100B6000A8E0B0E0E6EBF5E00C94952E9B01AC011B
:100B700083E08983DA01C9018827B7FD8395992726
:100B8000AA27BB27B82E211531054105510519F4B7
:100B900082E089833AC08823A9F0203080E03807BA
:100BA00080E0480780E8580729F460E070E080E0C2
:100BB0009FEC30C0EE24FF248701E21AF30A040BF5
:100BC000150B02C079018A018EE1C82ED12CDC827E
:100BD000CB82ED82FE820F831887C801B7010E9485
:100BE0005A0701971816190684F4082E04C0EE0C53
:100BF000FF1C001F111F0A94D2F7ED82FE820F83A3
:100C00001887C81AD90ADC82CB82BA82CE01019633
:100C10000E94A9072896E9E00C94B12EACE0B0E060
:100C2000E4E1F6E00C949C2E69837A838B839C83A9
:100C3000CE010196BE016B5F7F4F0E947E088D81C1
:100C4000823061F1823050F1843021F48E8188232A
:100C500051F12EC02F81388537FD20C06E812F3194
:100C600031051CF06623F9F023C08EE190E0821B71
:100C7000930B29853A854B855C8504C0569547952D
:100C8000379527958A95D2F76623B1F05095409510
:100C9000309521953F4F4F4F5F4F0EC020E030E021
:100CA00040E050E009C02FEF3FEF4FEF5FE704C097
:100CB00020E030E040E050E8B901CA012C96E2E0C3
:100CC0000C94B82EA8E0B0E0E8E6F6E00C94942E80
:100CD0007B018C01611571058105910519F482E094
:100CE000898360C083E089838EE1C82ED12CDC82A9
:100CF000CB82ED82FE820F831887C801B7010E9464
:100D00005A07FC013197F7FF3BC0222733272E1BE0
:100D10003F0B57016801022E04C0D694C794B794C4
:100D2000A7940A94D2F740E050E060E070E081E0E0
:100D300090E0A0E0B0E004C0880F991FAA1FBB1F7D
:100D40002A95D2F70197A109B1098E219F21A023ED
:100D5000B1230097A105B10521F041E050E060E02A
:100D600070E04A295B296C297D294D835E836F835E
:100D700078878EE190E08E1B9F0B9C838B8312C043
:100D8000309781F00E2E04C0EE0CFF1C001F111FC7
:100D90000A94D2F7ED82FE820F831887CE1ADF0AFB
:100DA000DC82CB821A82CE0101960E94A907289686
:100DB000EAE00C94B02EEF92FF920F93DF93CF9363
:100DC000CDB7DEB760970FB6F894DEBF0FBECDBFCC
:100DD000A82F002309F461C07E010894E11CF11CD6
:100DE00088E0F70111928A95E9F729833A834B83CA
:100DF0005C836D837E83AF83988780E2801BE82FBE
:100E0000FF27E7FDF0954D815E816F81788518168B
:100E100084F01D861E861F86188A882799278E1BB8
:100E20009F0B04C076956795579547958A95D2F79D
:100E300028C0202F332727FD3095DB01CA01022E61
:100E400004C0B695A795979587950A94D2F78D8794
:100E50009E87AF87B88B04C0440F551F661F771F4E
:100E6000EA95D2F789819A81AB81BC8104C0B6959D
:100E7000A795979587952A95D2F7482B592B6A2BDA
:100E80007B2B49875A876B877C8729853A854B85D9
:100E90005C856D857E85AF8598898A2F60960FB6B3
:100EA000F894DEBF0FBECDBFCF91DF910F91FF90C1
:100EB000EF900895EF92FF920F931F937B018C01A7
:100EC00080E0E81680E0F80681E0080780E0180777
:100ED00088F48FEFE816F1040105110531F028F0D0
:100EE00088E090E0A0E0B0E017C080E090E0A0E0F3
:100EF000B0E012C080E0E81680E0F80680E0080765
:100F000081E0180728F088E190E0A0E0B0E004C09C
:100F100080E190E0A0E0B0E020E230E040E050E08E
:100F2000281B390B4A0B5B0B04C016950795F794E9
:100F3000E7948A95D2F7F701E859FF4F8081281B83
:100F4000310941095109C9011F910F91FF90EF909B
:100F50000895DF92EF92FF920F931F93FC01E480BC
:100F6000F58006811781D1808081823048F480E04D
:100F700090E0A0E1B0E0E82AF92A0A2B1B2BA5C0DB
:100F8000843009F49FC0823021F4EE24FF248701CD
:100F900005C0E114F1040105110519F4E0E0F0E0E9
:100FA00096C0628173819FEF623879070CF05BC055
:100FB00022E83FEF261B370B2A3131052CF020E0C9
:100FC00030E040E050E02AC0B801A701022E04C082
:100FD00076956795579547950A94D2F781E090E00A
:100FE000A0E0B0E004C0880F991FAA1FBB1F2A957C
:100FF000D2F70197A109B1098E219F21A023B12326
:101000000097A105B10521F081E090E0A0E0B0E0FB
:101010009A01AB01282B392B4A2B5B2BDA01C90132
:101020008F779070A070B07080349105A105B105E4
:1010300039F427FF09C0205C3F4F4F4F5F4F04C07A
:10104000215C3F4F4F4F5F4FE0E0F0E02030A0E0E9
:101050003A07A0E04A07A0E45A0710F0E1E0F0E008
:1010600079018A0127C06038710564F5FB01E158F8
:10107000FF4FD801C7018F779070A070B070803497
:101080009105A105B10539F4E7FE0DC080E490E0BB
:10109000A0E0B0E004C08FE390E0A0E0B0E0E80E94
:1010A000F91E0A1F1B1F17FF05C016950795F79419
:1010B000E794319687E016950795F794E7948A951B
:1010C000D1F705C0EE24FF248701EFEFF0E06E2F8B
:1010D000679566276795902F9F77D794DD24D794DF
:1010E0008E2F8695492F462B582F5D29B701CA01AF
:1010F0001F910F91FF90EF90DF900895FC01DB01AD
:10110000408151812281622F6F7770E0221F222758
:10111000221F9381892F880F822B282F30E0991F5F
:101120009927991F11969C93119721153105A9F5BF
:10113000411551056105710511F482E037C082E85F
:101140009FEF13969C938E9312979A01AB0167E0E1
:10115000220F331F441F551F6A95D1F783E08C93EC
:101160000DC0220F331F441F551F12968D919C9165
:101170001397019713969C938E931297203080E0DB
:10118000380780E0480780E4580758F314962D93F9
:101190003D934D935C93179708952F3F310579F454
:1011A000411551056105710519F484E08C9308958A
:1011B00064FF03C081E08C9312C01C9210C02F57B3
:1011C000304013963C932E93129783E08C9387E0E4
:1011D000440F551F661F771F8A95D1F770641496C8
:1011E0004D935D936D937C93179708951F93DC0146
:1011F000FB019C91923008F447C08081823008F452
:1012000043C0943051F411961C91843099F581813A
:10121000682F70E0611B71093FC0843021F092306B
:1012200031F48230B9F18181882389F12DC0119682
:101230001C9111978230F1F081811817D9F4129620
:101240002D913C911397828193818217930794F09B
:1012500028173907BCF014968D919D910D90BC9183
:10126000A02D2481358146815781281739074A07E7
:101270005B0718F4112341F00AC082179307A407F3
:10128000B50740F4112319F061E070E005C06FEF7D
:101290007FEF02C060E070E0CB011F910895DF9303
:1012A000CF93CDB7DEB727970FB6F894DEBF0FBE4A
:1012B000CDBF89836A834B838B81813009F06FC0F6
:1012C0008981282F30E03F832E838E819F8181305A
:1012D000910549F12E813F81223031052CF48E8118
:1012E0009F81009761F0D2C02E813F81223031056D
:1012F00071F18E819F8183309105E9F1C7C0AAE326
:10130000B0E0EAE3F0E08081482F8A81282F30E0C6
:1013100081E090E0022E02C0880F991F0A94E2F744
:10132000842B8C93B3C0A7E3B0E0E7E3F0E08081C7
:10133000482F8A81282F30E081E090E0022E02C001
:10134000880F991F0A94E2F7842B8C939FC0A4E323
:10135000B0E0E4E3F0E08081482F8A81282F30E07C
:1013600081E090E0022E02C0880F991F0A94E2F7F4
:10137000842B8C938BC0A1E3B0E0E1E3F0E08081AB
:10138000482F8A81282F30E081E090E0022E02C0B1
:10139000880F991F0A94E2F7842B8C9377C08B8176
:1013A000882309F073C08981282F30E03D832C8386
:1013B0008C819D818130910559F12C813D812230B4
:1013C00031052CF48C819D81009769F05FC02C81E0
:1013D0003D812230310589F18C819D8183309105D9
:1013E00009F440C053C0AAE3B0E0EAE3F0E0808132
:1013F000482F8A81282F30E081E090E0022E02C041
:10140000880F991F0A94E2F7809584238C933EC03D
:10141000A7E3B0E0E7E3F0E08081482F8A81282F3E
:1014200030E081E090E0022E02C0880F991F0A94FC
:10143000E2F7809584238C9329C0A4E3B0E0E4E331
:10144000F0E08081482F8A81282F30E081E090E011
:10145000022E02C0880F991F0A94E2F78095842318
:101460008C9314C0A1E3B0E0E1E3F0E08081482F69
:101470008A81282F30E081E090E0022E02C0880FA0
:10148000991F0A94E2F7809584238C9327960FB6D0
:10149000F894DEBF0FBECDBFCF91DF910895DF93EB
:1014A000CF9300D000D0CDB7DEB789836A8389811E
:1014B000282F30E03C832B838B819C8181309105E8
:1014C000D1F02B813C81223031052CF48B819C8121
:1014D000009761F01EC02B813C812230310581F0E4
:1014E0008B819C818330910581F013C0EAE3F0E0A9
:1014F0008A8180830EC0E7E3F0E08A81808309C09F
:10150000E4E3F0E08A81808304C0E1E3F0E08A81D3
:1015100080830F900F900F900F90CF91DF910895DF
:10152000DF93CF93CDB7DEB727970FB6F894DEBF22
:101530000FBECDBF89836A834B838B81813009F0D5
:101540006FC08981282F30E03F832E838E819F8159
:101550008130910549F12E813F81223031052CF4F3
:101560008E819F81009761F0D2C02E813F81223011
:10157000310571F18E819F8183309105E9F1C7C0FA
:10158000ABE3B0E0EBE3F0E08081482F8A81282FC5
:1015900030E081E090E0022E02C0880F991F0A948B
:1015A000E2F7842B8C93B3C0A8E3B0E0E8E3F0E06B
:1015B0008081482F8A81282F30E081E090E0022E40
:1015C00002C0880F991F0A94E2F7842B8C939FC066
:1015D000A5E3B0E0E5E3F0E08081482F8A81282F81
:1015E00030E081E090E0022E02C0880F991F0A943B
:1015F000E2F7842B8C938BC0A2E3B0E0E2E3F0E04F
:101600008081482F8A81282F30E081E090E0022EEF
:1016100002C0880F991F0A94E2F7842B8C9377C03D
:101620008B81882309F073C08981282F30E03D83A6
:101630002C838C819D818130910559F12C813D81D4
:10164000223031052CF48C819D81009769F05FC0B8
:101650002C813D812230310589F18C819D8183303F
:10166000910509F440C053C0ABE3B0E0EBE3F0E018
:101670008081482F8A81282F30E081E090E0022E7F
:1016800002C0880F991F0A94E2F7809584238C93F7
:101690003EC0A8E3B0E0E8E3F0E08081482F8A8113
:1016A000282F30E081E090E0022E02C0880F991FC1
:1016B0000A94E2F7809584238C9329C0A5E3B0E0D7
:1016C000E5E3F0E08081482F8A81282F30E081E037
:1016D00090E0022E02C0880F991F0A94E2F78095CD
:1016E00084238C9314C0A2E3B0E0E2E3F0E08081B5
:1016F000482F8A81282F30E081E090E0022E02C03E
:10170000880F991F0A94E2F7809584238C9327967B
:101710000FB6F894DEBF0FBECDBFCF91DF91089515
:10172000DF93CF9300D000D0CDB7DEB789836A8333
:101730008981282F30E03C832B838B819C818130F1
:101740009105D1F02B813C81223031052CF48B8125
:101750009C81009761F01EC02B813C8122303105B5
:1017600081F08B819C818330910581F013C0EBE384
:10177000F0E08A8180830EC0E8E3F0E08A81808314
:1017800009C0E5E3F0E08A81808304C0E2E3F0E091
:101790008A8180830F900F900F900F90CF91DF91EF
:1017A0000895DF93CF9300D000D0CDB7DEB7898303
:1017B0006A838981282F30E03C832B838B819C8135
:1017C0008130910549F12B813C81223031052CF487
:1017D0008B819C81009761F05AC02B813C81223023
:1017E000310571F18B819C8183309105E9F14FC006
:1017F000ABE3B0E0EBE3F0E08081482F8A81282F53
:1018000030E081E090E0022E02C0880F991F0A9418
:10181000E2F784278C933BC0A8E3B0E0E8E3F0E074
:101820008081482F8A81282F30E081E090E0022ECD
:1018300002C0880F991F0A94E2F784278C9327C06F
:10184000A5E3B0E0E5E3F0E08081482F8A81282F0E
:1018500030E081E090E0022E02C0880F991F0A94C8
:10186000E2F784278C9313C0A2E3B0E0E2E3F0E058
:101870008081482F8A81282F30E081E090E0022E7D
:1018800002C0880F991F0A94E2F784278C930F9067
:101890000F900F900F90CF91DF910895DF93CF932A
:1018A00000D000D000D0CDB7DEB789836A838981AC
:1018B000282F30E03D832C834C815D8141305105E0
:1018C00049F18C819D818230910534F42C813D81D8
:1018D0002115310561F057C04C815D8142305105C1
:1018E00061F18C819D8183309105D1F14CC0E9E398
:1018F000F0E08081282F30E08A81882F90E0A901D4
:1019000002C0559547958A95E2F7CA01582F517044
:101910005B833AC0E6E3F0E08081282F30E08A81E3
:10192000882F90E0A90102C0559547958A95E2F766
:10193000CA01582F51705B8327C0E3E3F0E0808138
:10194000282F30E08A81882F90E0A90102C05595A8
:1019500047958A95E2F7CA01582F51705B8314C0EE
:10196000E0E3F0E08081282F30E08A81882F90E04A
:10197000A90102C0559547958A95E2F7CA01582FEB
:1019800051705B8301C002C08B818E838E8126964D
:101990000FB6F894DEBF0FBECDBFCF91DF91089593
:1019A000DF93CF9300D000D00F92CDB7DEB78983FD
:1019B0007B836A838981282F30E03D832C838C814F
:1019C0009D818130910581F02C813D81223031054E
:1019D00091F08C819D810097A1F48A819B819093E5
:1019E0006D0180936C010DC08A819B8190936F0182
:1019F00080936E0106C08A819B81909371018093D0
:101A000070010F900F900F900F900F90CF91DF917A
:101A10000895DF93CF93CDB7DEB78091690183300E
:101A200079F4A5E5B0E0E5E5F0E080818B7F8C936B
:101A3000A5E5B0E0E5E5F0E08081877F8C9342C0CA
:101A400080916901843079F4A5E5B0E0E5E5F0E046
:101A5000808184608C93A5E5B0E0E5E5F0E08081CD
:101A6000877F8C932FC0809169018130C9F483E016
:101A700063E040E00E944F0983E063E041E00E94A0
:101A8000900AA5E5B0E0E5E5F0E080818B7F8C93DE
:101A9000A5E5B0E0E5E5F0E0808188608C9312C0B8
:101AA00080916901823071F4A5E5B0E0E5E5F0E0F0
:101AB000808184608C93A5E5B0E0E5E5F0E080816D
:101AC00088608C93CF91DF910895DF93CF9300D0FE
:101AD0000F92CDB7DEB789838981282F30E03B8311
:101AE0002A838A819B818130910589F02A813B81FB
:101AF00022303105A1F08A819B810097B9F4ABE5D2
:101B0000B0E0EBE5F0E0808181608C930FC0ABE545
:101B1000B0E0EBE5F0E0808180688C9307C0ABE536
:101B2000B0E0EBE5F0E0808181608C930F900F9046
:101B30000F90CF91DF910895DF93CF9300D00F9254
:101B4000CDB7DEB789838981282F30E03B832A8394
:101B50008A819B818130910589F02A813B812230E5
:101B60003105A1F08A819B810097B9F4ABE5B0E023
:101B7000EBE5F0E080818E7F8C930FC0ABE5B0E0A9
:101B8000EBE5F0E080818F778C9307C0ABE5B0E0A8
:101B9000EBE5F0E080818E7F8C930F900F900F909B
:101BA000CF91DF9108951F920F920FB60F921124DB
:101BB0002F933F934F935F936F937F938F939F9355
:101BC000AF93BF93EF93FF93DF93CF93CDB7DEB780
:101BD000E0916C01F0916D010995CF91DF91FF913A
:101BE000EF91BF91AF919F918F917F916F915F9195
:101BF0004F913F912F910F900FBE0F901F9018950E
:101C00001F920F920FB60F9211242F933F934F9371
:101C10005F936F937F938F939F93AF93BF93EF9354
:101C2000FF93DF93CF93CDB7DEB7E0916E01F091D4
:101C30006F010995CF91DF91FF91EF91BF91AF9126
:101C40009F918F917F916F915F914F913F912F91D4
:101C50000F900FBE0F901F9018951F920F920FB606
:101C60000F9211242F933F934F935F936F937F9322
:101C70008F939F93AF93BF93EF93FF93DF93CF9394
:101C8000CDB7DEB7E0917001F09171010995CF9168
:101C9000DF91FF91EF91BF91AF919F918F917F91D4
:101CA0006F915F914F913F912F910F900FBE0F90C9
:101CB0001F901895DF93CF9300D000D0CDB7DEB73B
:101CC00089836A838A81282F30E03C832B838B8130
:101CD0009C818230910509F464C02B813C812330C2
:101CE000310534F48B819C818130910571F0CCC039
:101CF0002B813C812330310509F481C08B819C818B
:101D00008430910509F49EC0BFC089818823C1F445
:101D100083E062E040E00E944F0983E062E041E03E
:101D20000E94900AA5E5B0E0E5E5F0E080818E7FB5
:101D30008C93A5E5B0E0E5E5F0E0808182608C93CE
:101D400089818130C1F483E063E040E00E944F0963
:101D500083E063E041E00E94900AA5E5B0E0E5E59C
:101D6000F0E080818B7F8C93A5E5B0E0E5E5F0E0C5
:101D7000808188608C938981823009F085C081E000
:101D800062E040E00E944F0981E062E041E00E9491
:101D9000900AA4E5B0E0E4E5F0E080818F7B8C93CD
:101DA00073C08981882371F4A5E5B0E0E5E5F0E032
:101DB000808181608C93A5E5B0E0E5E5F0E080816D
:101DC00082608C938981813071F4A5E5B0E0E5E50E
:101DD000F0E0808184608C93A5E5B0E0E5E5F0E07B
:101DE000808188608C938981823009F04DC0A4E5A0
:101DF000B0E0E4E5F0E0808180648C9345C08981A7
:101E0000882371F4A5E5B0E0E5E5F0E080818E7F00
:101E10008C93A5E5B0E0E5E5F0E080818D7F8C93C3
:101E20008981813089F5A5E5B0E0E5E5F0E08081C4
:101E30008B7F8C93A5E5B0E0E5E5F0E08081877FBE
:101E40008C9322C08981882371F4A5E5B0E0E5E593
:101E5000F0E0808181608C93A5E5B0E0E5E5F0E0FD
:101E600080818D7F8C938981813071F4A5E5B0E00C
:101E7000E5E5F0E0808184608C93A5E5B0E0E5E5E0
:101E8000F0E08081877F8C930F900F900F900F90E0
:101E9000CF91DF910895DF93CF93CDB7DEB7AFE554
:101EA000B0E0EFE5F0E0808180688C93CF91DF9126
:101EB0000895DF93CF93CDB7DEB7AFE5B0E0EFE5A0
:101EC000F0E080818F778C93CF91DF910895DF933D
:101ED000CF9300D000D00F92CDB7DEB789837B833C
:101EE0006A838981282F30E03D832C838C819D81FA
:101EF0008130910581F02C813D812230310591F0B6
:101F00008C819D810097A1F48A819B8190937301BC
:101F1000809372010DC08A819B819093750180939B
:101F2000740106C08A819B8190937701809376012A
:101F30000F900F900F900F900F90CF91DF91089519
:101F4000DF93CF93CDB7DEB7E3E5F0E01082A9E5EC
:101F5000B0E0E9E5F0E0808181608C93A3E5B0E03A
:101F6000E3E5F0E080818B7F8C93A3E5B0E0E3E5CF
:101F7000F0E0808182608C93A3E5B0E0E3E5F0E0DF
:101F800080818E7F8C9388E090E090938501809390
:101F90008401CF91DF9108956F927F928F929F92EB
:101FA000AF92BF92CF92DF92EF92FF920F931F9367
:101FB000DF93CF93CDB7DEB7CF54D0400FB6F894B0
:101FC000DEBF0FBECDBF89838981082F10E020E0DE
:101FD00030E040E050E060E070E00A831B832C8337
:101FE0003D834E835F8368877987AA80BB80CC80DE
:101FF000DD80EE80FF80088519852A2D3B2D4C2D34
:102000005D2D6E2D7F2D802F912F02E00E944900C3
:102010002A873B874C875D876E877F87888B998B64
:102020002A853B854C855D856E857F858889998964
:1020300005E00E9449002A8B3B8B4C8B5D8B6E8B9D
:102040007F8B888F998F1A892A85121B1A8F31E00E
:102050003AA34A8D5A89541708F01AA26B897B85D6
:10206000671B6B8F81E08BA39B8DEB89E91708F0D1
:102070001BA2FB8D0AA1F01BFCA311E01DA32CA148
:102080003B8D321708F01DA24BA15DA1452B4BA340
:102090006CA16B8F7C898C85781B7C8F91E09EA3D3
:1020A000EC8DFC89FE1708F01EA20C8D1BA1011BF4
:1020B0000FA321E028A73FA14C8D431708F018A6D5
:1020C0005EA168A5562B5EA37FA17C8F8D899D851F
:1020D000891B8D8FE1E0E9A7FD8D0D890F1708F0B1
:1020E00019A61D8D2EA1121B1AA731E03BA74AA5E8
:1020F0005D8D541708F01BA669A57BA5672B69A702
:102100008AA58D8F9E89EE859E1B9E8FF1E0FCA790
:102110000E8D1E89101708F01CA62E8D39A5231BC5
:102120002DA741E04EA75DA56E8D651708F01EA690
:102130007CA58EA5782B7CA79DA59E8FEF89FF851A
:10214000EF1BEF8F01E00FA71F8D2F89211708F0DC
:102150001FA63F8D4CA5341B38AB51E059AB68A985
:102160007F8D761708F019AA8FA599A9892B8FA7BB
:10217000E8A9EF8FF88D0889F01BF8A311E01AABDE
:1021800028A1388D321708F01AAA48A15FA5451B6F
:102190004BAB61E06CAB7BA988A1871708F01CAA48
:1021A0009AA9ECA99E2B9AABFBA9F8A3098D1989D2
:1021B000011B09A389A12AA9821B89A33A8D3A8B05
:1021C0004B8D4B8B5C8D5C8B6D8D6D8B7E8D7E8B8B
:1021D0008F8D8F8B98A1988FE9A1E98FFA890A8159
:1021E000F00FFDAB11E01DAF2DA93A89231708F0C0
:1021F0001DAE4B895B81450F4EAB61E06EAF7EA992
:102200008B89781708F01EAE9DADEEA99E0F9FAF8B
:10221000F1E02196FFAF21970FAD1EA9011718F02D
:1022200021961FAE21972EAD21963FAD2197232BEE
:102230002EAF4FAD4EAB5C896C81560F5FAB71E03A
:1022400022967FAF22978FA99C89891718F0229632
:102250001FAE2297EEADFFA9EF0F2396EFAF2397A6
:1022600001E024960FAF249723961FAD23972FA943
:10227000121718F024961FAE249722963FAD22978E
:1022800024964FAD2497342B22963FAF2297239666
:102290005FAD23975FAB6D897D81670F68AF81E08C
:1022A00025968FAF259798ADED899E1718F0259646
:1022B0001FAE25972296FFAD229708ADF00F269608
:1022C000FFAF269711E027961FAF279726962FADD1
:1022D000269738AD231718F027961FAE2797259617
:1022E0004FAD259727965FAD2797452B25964FAF86
:1022F000259726966FAD269768AF7E898E81780FD9
:1023000079AF91E028969FAF2897E9ADFE89EF1746
:1023100018F028961FAE289725960FAD259719AD72
:10232000010F29960FAF299721E02A962FAF2A9700
:1023300029963FAD299749AD341718F02A961FAE5C
:102340002A9728965FAD28972A966FAD2A97562B25
:1023500028965FAF289729967FAD299779AF8F8907
:102360009F81890F8AAFE1E02B96EFAF2B97FAADF3
:102370000F89F01718F02B961FAE2B9728961FADDC
:1023800028972AAD120F2C961FAF2C9731E02D966F
:102390003FAF2D972C964FAD2C975AAD451718F09F
:1023A0002D961FAE2D972B966FAD2B972D967FAD4B
:1023B0002D97672B2B966FAF2B972C968FAD2C9765
:1023C0008AAF988DE8859E0F9BAFF1E02E96FFAF08
:1023D0002E970BAD188D011718F02E961FAE2E9765
:1023E0002B962FAD2B973BAD230F2F962FAF2F970B
:1023F00041E060964FAF60972F965FAD2F976BAD22
:10240000561718F060961FAE60972E967FAD2E97E8
:1024100060968FAD6097782B2E967FAF2E972F9674
:102420009FAD2F979BAFE98DF985EF0FECAF2E96FF
:102430008FAD2E970CAD800F8CAF1DA91A8B2EA9D6
:102440002B8B3FA93C8B48AD4D8B59AD5E8B6AAD54
:102450006F8B7BAD788F8CAD898F2A893B894C89B6
:102460005D896E897F89888D998D03E00E9449007E
:10247000A22EB32EC42ED52EE62EF72E082F192FFE
:102480002A2D3B2D4C2D5D2D6E2D7F2D802F912FD4
:1024900020937C0130937D0140937E0150937F0116
:1024A00060938001709381018093820190938301F6
:1024B0008091840190918501CC01A0E0B0E0BC0145
:1024C000CD010E946206DC01CB01BC01CD0120E000
:1024D00030E040E853E40E947A03DC01CB01BC0108
:1024E000CD0120E030E04AEF55E40E947404DC01A5
:1024F000CB018093860190938701A0938801B093CC
:102500008901A0907C01B0907D01C0907E01D090A7
:102510007F01E0908001F090810100918201109193
:1025200083012A2D3B2D4C2D5D2D6E2D7F2D802F6F
:10253000912F0E94F400DC01CB01209186013091A3
:1025400087014091880150918901BC01CD010E9411
:102550007404DC01CB0180938A0190938B01A093DA
:102560008C01B0938D0160908A0170908B018090F6
:102570008C0190908D01A0907C01B0907D01C09065
:102580007E01D0907F01E0908001F0908101009168
:102590008201109183012A2D3B2D4C2D5D2D6E2D36
:1025A0007F2D802F912F0E94F400DC01CB01209120
:1025B0008601309187014091880150918901BC01C9
:1025C000CD010E947404DC01CB01BC01CD010E944D
:1025D000C800DC01CB01CC01A0E0B0E0BC01CD0122
:1025E0000E9462069B01AC01C401B3010E941C035E
:1025F000DC01CB0180938E0190938F01A093900119
:10260000B093910180918A0190918B01A0918C01EE
:10261000B0918D01BC01CD010E94C800DC01CB014D
:10262000CC01A0E0B0E0BC01CD010E946206DC015B
:10263000CB0120918A0130918B0140918C01509106
:102640008D01BC01CD010E9480058823D4F48091C6
:102650008A0190918B01A0918C01B0918D01BC01F8
:10266000CD0120E030E040E85FE30E944D03DC0153
:10267000CB0180938A0190938B01A0938C01B0933E
:102680008D0102E510E080918E0190918F01A09163
:102690009001B0919101BC01CD0120E030E040E813
:1026A00053EC0E947A03DC01CB01BC01CD0120E098
:1026B00030E040E853E40E944D03DC01CB01BC0153
:1026C000CD010E94C800DC01CB01F8018083C15B11
:1026D000DF4F0FB6F894DEBF0FBECDBFCF91DF91B5
:1026E0001F910F91FF90EF90DF90CF90BF90AF9030
:1026F0009F908F907F906F9008956F927F928F92AE
:102700009F92AF92BF92CF92DF92EF92FF920F9380
:102710001F93DF93CF9300D0CDB7DEB79A83898321
:1027200089819A819C0140E050E060E070E080E0A7
:1027300090E020937C0130937D0140937E01509383
:102740007F01609380017093810180938201909357
:1027500083018091840190918501CC01A0E0B0E0DB
:10276000BC01CD010E946206DC01CB01BC01CD01A0
:1027700020E030E040E853E40E947A03DC01CB0122
:10278000BC01CD0120E030E04AEF55E40E94740422
:10279000DC01CB018093860190938701A09388018F
:1027A000B0938901A0907C01B0907D01C0907E0122
:1027B000D0907F01E0908001F09081010091820132
:1027C000109183012A2D3B2D4C2D5D2D6E2D7F2DDB
:1027D000802F912F0E94F400DC01CB012091860113
:1027E000309187014091880150918901BC01CD0150
:1027F0000E947404DC01CB0180938A0190938B01C9
:10280000A0938C01B0938D0160908A0170908B0130
:1028100080908C0190908D01A0907C01B0907D0102
:10282000C0907E01D0907F01E0908001F090810106
:1028300000918201109183012A2D3B2D4C2D5D2D9D
:102840006E2D7F2D802F912F0E94F400DC01CB0193
:102850002091860130918701409188015091890132
:10286000BC01CD010E947404DC01CB01BC01CD018F
:102870000E94C800DC01CB01CC01A0E0B0E0BC01AB
:10288000CD010E9462069B01AC01C401B3010E940C
:102890001C03DC01CB0180938E0190938F01A093E8
:1028A0009001B093910180918A0190918B01A09148
:1028B0008C01B0918D01BC01CD010E94C800DC01EA
:1028C000CB01CC01A0E0B0E0BC01CD010E946206CA
:1028D000DC01CB0120918A0130918B0140918C0168
:1028E00050918D01BC01CD010E9480058823D4F454
:1028F00080918A0190918B01A0918C01B0918D0102
:10290000BC01CD0120E030E040E85FE30E944D03D0
:10291000DC01CB0180938A0190938B01A0938C0101
:10292000B0938D0102E510E080918E0190918F01AE
:10293000A0919001B0919101BC01CD0120E030E067
:1029400040E853EC0E947A03DC01CB01BC01CD01CD
:1029500020E030E040E853E40E944D03DC01CB016D
:10296000BC01CD010E94C800DC01CB01F8018083CD
:102970000F900F90CF91DF911F910F91FF90EF90EB
:10298000DF90CF90BF90AF909F908F907F906F908F
:102990000895DF93CF930F92CDB7DEB789838981F6
:1029A000482F50E0CA019C01220F331FC9019695A0
:1029B000982F882797958795821B930B840F951FD7
:1029C00024E630E0B9010E94782ECB018983ECE542
:1029D000F0E0898180830F90CF91DF910895DF939C
:1029E000CF93CDB7DEB7EFE4F0E080EA8083AEE4CA
:1029F000B0E0EEE4F0E0808180618C93AEE4B0E082
:102A0000EEE4F0E0808188608C93AFE4B0E0EFE426
:102A1000F0E0808182608C93AFE4B0E0EFE4F0E01E
:102A200080818E7F8C9383E065E041E00E944F09B6
:102A300083E064E041E00E944F0983E065E040E00C
:102A40000E94900A83E064E040E00E94900AAEE4B5
:102A5000B0E0EEE4F0E080818B7F8C93AEE4B0E0F8
:102A6000EEE4F0E0808182608C93AEE4B0E0EEE4CE
:102A7000F0E080818E7F8C9388E090E090939301CA
:102A800080939201CF91DF910895DF93CF93CDB7DB
:102A9000DEB7E7E4F0E088E98083E6E4F0E080E296
:102AA0008083CF91DF910895DF93CF9300D000D042
:102AB000CDB7DEB79A8389837C836B83EBE4F0E048
:102AC00089819A81892F99278083EAE4F0E08981BE
:102AD0008083E9E4F0E08B819C81892F99278083B2
:102AE000E8E4F0E08B8180830F900F900F900F90BF
:102AF000CF91DF910895DF93CF93CDB7DEB72997BC
:102B00000FB6F894DEBF0FBECDBF89836A834B83B7
:102B10008981282F30E039872887888599858E30EC
:102B2000910531F0288539852F303105F1F039C014
:102B3000AFE4B0E0EFE4F0E080818E7F8C93AFE40F
:102B4000B0E0EFE4F0E0808182608C93AEE4B0E02E
:102B5000EEE4F0E0808188608C93AEE4B0E0EEE4D7
:102B6000F0E0808180618C931CC0AFE4B0E0EFE4C2
:102B7000F0E0808181608C93AFE4B0E0EFE4F0E0BE
:102B8000808182608C93AEE4B0E0EEE4F0E080817E
:102B900088608C93AEE4B0E0EEE4F0E08081806188
:102BA0008C938A81282F30E03F832E838E819F81F2
:102BB0008130910521F12E813F81223031052CF4A5
:102BC0008E819F81009761F046C02E813F81223027
:102BD000310521F18E819F818330910571F13BC0D8
:102BE000AFE4B0E0EFE4F0E080818F7B8C93AFE462
:102BF000B0E0EFE4F0E080818F778C932CC0AFE4FD
:102C0000B0E0EFE4F0E0808180648C93AFE4B0E06A
:102C1000EFE4F0E080818F778C931DC0AFE4B0E0EB
:102C2000EFE4F0E080818F7B8C93AFE4B0E0EFE4E1
:102C3000F0E0808180688C930EC0AFE4B0E0EFE4F8
:102C4000F0E0808180648C93AFE4B0E0EFE4F0E0EA
:102C5000808180688C938B81282F30E03D832C838A
:102C60008C819D818130910521F12C813D81223023
:102C700031052CF48C819D81009761F046C02C8138
:102C80003D812230310521F18C819D818330910578
:102C900071F13BC0AFE4B0E0EFE4F0E080818F7E03
:102CA0008C93AFE4B0E0EFE4F0E080818F7D8C9313
:102CB0002CC0AFE4B0E0EFE4F0E0808180618C9361
:102CC000AFE4B0E0EFE4F0E080818F7D8C931DC035
:102CD000AFE4B0E0EFE4F0E080818F7E8C93AFE46E
:102CE000B0E0EFE4F0E0808180628C930EC0AFE44E
:102CF000B0E0EFE4F0E0808180618C93AFE4B0E07D
:102D0000EFE4F0E0808180628C93AEE4B0E0EEE42A
:102D1000F0E080818B7F8C93AEE4B0E0EEE4F0E0F5
:102D2000808182608C93AEE4B0E0EEE4F0E08081DC
:102D30008E7F8C9388E090E0909393018093920132
:102D400029960FB6F894DEBF0FBECDBFCF91DF91AD
:102D50000895DF93CF9300D0CDB7DEB79A838983F0
:102D6000EBE4F0E089819A81892F99278083EAE456
:102D7000F0E0898180830F900F90CF91DF910895CB
:102D8000DF93CF9300D0CDB7DEB79A838983E9E490
:102D9000F0E089819A81892F99278083E8E4F0E027
:102DA000898180830F900F90CF91DF910895DF93F9
:102DB000CF9300D0CDB7DEB79A838983E7E4F0E004
:102DC00089819A81892F99278083E6E4F0E08981BF
:102DD00080830F900F90CF91DF910895DF93CF9371
:102DE000CDB7DEB783E066E040E00E944F09EFE434
:102DF000F0E08CE08083AEE4B0E0EEE4F0E08081CF
:102E00008E7F8C93AEE4B0E0EEE4F0E080818260EF
:102E10008C93AEE4B0E0EEE4F0E080818B7F8C93A5
:102E2000AEE4B0E0EEE4F0E0808180648C93ECE40A
:102E3000F0E011821082E6E4F0E011821082A9E550
:102E4000B0E0E9E5F0E0808180628C93CF91DF9182
:102E50000895DF93CF9300D0CDB7DEB79A838983EF
:102E600089819A8190937B0180937A010F900F90D2
:102E7000CF91DF910895DF93CF930F92CDB7DEB757
:102E800089838981813041F4AEE4B0E0EEE4F0E082
:102E9000808180648C930AC08981882339F4AEE4F0
:102EA000B0E0EEE4F0E080818F7B8C930F90CF91C7
:102EB000DF910895DF93CF93CDB7DEB7E6E4F0E07E
:102EC00080819181CF91DF910895DF93CF93CDB72A
:102ED000DEB7ECE4F0E011821082CF91DF9108952B
:102EE000DF93CF93CDB7DEB783E067E041E00E9488
:102EF0004F0983E067E040E00E94900AE5E4F0E0DB
:102F00001082A5E4B0E0E5E4F0E0808180648C9379
:102F1000A5E4B0E0E5E4F0E0808188608C93A5E46E
:102F2000B0E0E5E4F0E0808180628C93A5E4B0E05D
:102F3000E5E4F0E080818F7E8C93A5E4B0E0E5E4E9
:102F4000F0E080818B7F8C93A5E4B0E0E5E4F0E0D5
:102F5000808182608C93A5E4B0E0E5E4F0E08081BC
:102F60008E7F8C9388E090E090939D0180939C01EC
:102F7000CF91DF9108956F927F928F929F92AF923F
:102F8000BF92CF92DF92EF92FF920F931F93DF9346
:102F9000CF93CDB7DEB7CF54D0400FB6F894DEBF95
:102FA0000FBECDBF89838981082F10E020E030E07B
:102FB00040E050E060E070E00A831B832C833D8397
:102FC0004E835F8368877987AA80BB80CC80DD8051
:102FD000EE80FF80088519852A2D3B2D4C2D5D2D17
:102FE0006E2D7F2D802F912F02E00E9449002A87AD
:102FF0003B874C875D876E877F87888B998B2A8577
:103000003B854C855D856E857F858889998905E03E
:103010000E9449002A8B3B8B4C8B5D8B6E8B7F8B88
:10302000888F998F1A892A85121B1A8F31E03AA34B
:103030004A8D5A89541708F01AA26B897B85671B41
:103040006B8F81E08BA39B8DEB89E91708F01BA2A6
:10305000FB8D0AA1F01BFCA311E01DA32CA13B8D4D
:10306000321708F01DA24BA15DA1452B4BA36CA10B
:103070006B8F7C898C85781B7C8F91E09EA3EC8D77
:10308000FC89FE1708F01EA20C8D1BA1011B0FA3CB
:1030900021E028A73FA14C8D431708F018A65EA198
:1030A00068A5562B5EA37FA17C8F8D899D85891B8A
:1030B0008D8FE1E0E9A7FD8D0D890F1708F019A6A6
:1030C0001D8D2EA1121B1AA731E03BA74AA55D8DCD
:1030D000541708F01BA669A57BA5672B69A78AA5CD
:1030E0008D8F9E89EE859E1B9E8FF1E0FCA70E8D35
:1030F0001E89101708F01CA62E8D39A5231B2DA79D
:1031000041E04EA75DA56E8D651708F01EA67CA553
:103110008EA5782B7CA79DA59E8FEF89FF85EF1B41
:10312000EF8F01E00FA71F8D2F89211708F01FA631
:103130003F8D4CA5341B38AB51E059AB68A97F8D4E
:10314000761708F019AA8FA599A9892B8FA7E8A946
:10315000EF8FF88D0889F01BF8A311E01AAB28A1B6
:10316000388D321708F01AAA48A15FA5451B4BAB52
:1031700061E06CAB7BA988A1871708F01CAA9AA90B
:10318000ECA99E2B9AABFBA9F8A3098D1989011B09
:1031900009A389A12AA9821B89A33A8D3A8B4B8D59
:1031A0004B8B5C8D5C8B6D8D6D8B7E8D7E8B8F8D57
:1031B0008F8B98A1988FE9A1E98FFA890A81F00F86
:1031C000FDAB11E01DAF2DA93A89231708F01DAE04
:1031D0004B895B81450F4EAB61E06EAF7EA98B8959
:1031E000781708F01EAE9DADEEA99E0F9FAFF1E0DF
:1031F0002196FFAF21970FAD1EA9011718F0219658
:103200001FAE21972EAD21963FAD2197232B2EAFD8
:103210004FAD4EAB5C896C81560F5FAB71E022966F
:103220007FAF22978FA99C89891718F022961FAE2D
:103230002297EEADFFA9EF0F2396EFAF239701E0A2
:1032400024960FAF249723961FAD23972FA912170B
:1032500018F024961FAE249722963FAD229724960D
:103260004FAD2497342B22963FAF229723965FAD24
:1032700023975FAB6D897D81670F68AF81E02596ED
:103280008FAF259798ADED899E1718F025961FAE44
:1032900025972296FFAD229708ADF00F2696FFAF37
:1032A000269711E027961FAF279726962FAD2697D2
:1032B00038AD231718F027961FAE279725964FADE8
:1032C000259727965FAD2797452B25964FAF2597D6
:1032D00026966FAD269768AF7E898E81780F79AF7D
:1032E00091E028969FAF2897E9ADFE89EF1718F077
:1032F00028961FAE289725960FAD259719AD010F7B
:1033000029960FAF299721E02A962FAF2A97299661
:103310003FAD299749AD341718F02A961FAE2A976A
:1033200028965FAD28972A966FAD2A97562B289638
:103330005FAF289729967FAD299779AF8F899F81B5
:10334000890F8AAFE1E02B96EFAF2B97FAAD0F898B
:10335000F01718F02B961FAE2B9728961FAD2897C5
:103360002AAD120F2C961FAF2C9731E02D963FAF50
:103370002D972C964FAD2C975AAD451718F02D96DA
:103380001FAE2D972B966FAD2B972D967FAD2D975A
:10339000672B2B966FAF2B972C968FAD2C978AAF00
:1033A000988DE8859E0F9BAFF1E02E96FFAF2E978C
:1033B0000BAD188D011718F02E961FAE2E972B9679
:1033C0002FAD2B973BAD230F2F962FAF2F9741E0BB
:1033D00060964FAF60972F965FAD2F976BAD5617E6
:1033E00018F060961FAE60972E967FAD2E97609670
:1033F0008FAD6097782B2E967FAF2E972F969FAD2F
:103400002F979BAFE98DF985EF0FECAF2E968FAD1F
:103410002E970CAD800F8CAF1DA91A8B2EA92B8B6C
:103420003FA93C8B48AD4D8B59AD5E8B6AAD6F8B20
:103430007BAD788F8CAD898F2A893B894C895D89DA
:103440006E897F89888D998D03E00E944900A22EA4
:10345000B32EC42ED52EE62EF72E082F192F2A2D87
:103460003B2D4C2D5D2D6E2D7F2D802F912F209388
:103470009401309395014093960150939701609386
:1034800098017093990180939A0190939B01809188
:103490009C0190919D01CC01A0E0B0E0BC01CD0168
:1034A0000E946206DC01CB01BC01CD0120E030E0CE
:1034B00040E853E40E947A03DC01CB01BC01CD015A
:1034C00020E030E04AEF55E40E947404DC01CB01B7
:1034D00080939E0190939F01A093A001B093A101BE
:1034E000A0909401B0909501C0909601D090970162
:1034F000E0909801F090990100919A0110919B0140
:103500002A2D3B2D4C2D5D2D6E2D7F2D802F912F43
:103510000E94F400DC01CB0120919E0130919F01BB
:103520004091A0015091A101BC01CD010E94740401
:10353000DC01CB018093A2019093A301A093A4018D
:10354000B093A5016090A2017090A3018090A401A6
:103550009090A501A0909401B0909501C090960123
:10356000D0909701E0909801F090990100919A0114
:1035700010919B012A2D3B2D4C2D5D2D6E2D7F2D05
:10358000802F912F0E94F400DC01CB0120919E013D
:1035900030919F014091A0015091A101BC01CD014A
:1035A0000E947404DC01CB01BC01CD010E94C80063
:1035B000DC01CB01CC01A0E0B0E0BC01CD010E9458
:1035C00062069B01AC01C401B3010E941C03DC0133
:1035D000CB018093A6019093A701A093A801B0937B
:1035E000A9018091A2019091A301A091A401B091A1
:1035F000A501BC01CD010E94C800DC01CB01CC01BA
:10360000A0E0B0E0BC01CD010E946206DC01CB016C
:103610002091A2013091A3014091A4015091A501F4
:10362000BC01CD010E9480058823D4F48091A201C1
:103630009091A301A091A401B091A501BC01CD017D
:1036400020E030E040E85FE30E944D03DC01CB0165
:103650008093A2019093A301A093A401B093A5012C
:1036600004E410E08091A6019091A701A091A80127
:10367000B091A901BC01CD0120E030E040E853EC5D
:103680000E947A03DC01CB01BC01CD0120E030E0D7
:1036900040E853E40E944D03DC01CB01BC01CD01A5
:1036A0000E94C800DC01CB01F8018083C15BDF4FC1
:1036B0000FB6F894DEBF0FBECDBFCF91DF911F9143
:1036C0000F91FF90EF90DF90CF90BF90AF909F90C1
:1036D0008F907F906F9008956F927F928F929F92BC
:1036E000AF92BF92CF92DF92EF92FF920F931F9310
:1036F000DF93CF9300D0CDB7DEB79A8389838981DA
:103700009A819C0140E050E060E070E080E090E051
:103710002093940130939501409396015093970123
:10372000609398017093990180939A0190939B0103
:1037300080919C0190919D01CC01A0E0B0E0BC0182
:10374000CD010E946206DC01CB01BC01CD0120E06D
:1037500030E040E853E40E947A03DC01CB01BC0175
:10376000CD0120E030E04AEF55E40E947404DC0112
:10377000CB0180939E0190939F01A093A001B093F1
:10378000A101A0909401B0909501C0909601D090B5
:103790009701E0909801F090990100919A011091A1
:1037A0009B012A2D3B2D4C2D5D2D6E2D7F2D802FC5
:1037B000912F0E94F400DC01CB0120919E013091F9
:1037C0009F014091A0015091A101BC01CD010E9437
:1037D0007404DC01CB018093A2019093A301A09318
:1037E000A401B093A5016090A2017090A301809004
:1037F000A4019090A501A0909401B0909501C09073
:103800009601D0909701E0909801F0909901009175
:103810009A0110919B012A2D3B2D4C2D5D2D6E2D73
:103820007F2D802F912F0E94F400DC01CB0120918D
:103830009E0130919F014091A0015091A101BC01D6
:10384000CD010E947404DC01CB01BC01CD010E94BA
:10385000C800DC01CB01CC01A0E0B0E0BC01CD018F
:103860000E9462069B01AC01C401B3010E941C03CB
:10387000DC01CB018093A6019093A701A093A8013E
:10388000B093A9018091A2019091A301A091A401FC
:10389000B091A501BC01CD010E94C800DC01CB01A3
:1038A000CC01A0E0B0E0BC01CD010E946206DC01C9
:1038B000CB012091A2013091A3014091A40150912C
:1038C000A501BC01CD010E9480058823D4F480911C
:1038D000A2019091A301A091A401B091A501BC0106
:1038E000CD0120E030E040E85FE30E944D03DC01C1
:1038F000CB018093A2019093A301A093A401B09364
:10390000A50104E410E08091A6019091A701A09187
:10391000A801B091A901BC01CD0120E030E040E850
:1039200053EC0E947A03DC01CB01BC01CD0120E005
:1039300030E040E853E40E944D03DC01CB01BC01C0
:10394000CD010E94C800DC01CB01F80180830F90FB
:103950000F90CF91DF911F910F91FF90EF90DF902B
:10396000CF90BF90AF909F908F907F906F90089571
:10397000DF93CF930F92CDB7DEB789838981482F2C
:1039800050E0CA019C01220F331FC9019695982F60
:10399000882797958795821B930B840F951F24E6A4
:1039A00030E0B9010E94782ECB018983E3E4F0E096
:1039B000898180830F90CF91DF9108951F920F929C
:1039C0000FB60F9211242F933F934F935F936F93F2
:1039D0007F938F939F93AF93BF93EF93FF93DF9367
:1039E000CF93CDB7DEB7E0917201F09173010995E5
:1039F000CF91DF91FF91EF91BF91AF919F918F9107
:103A00007F916F915F914F913F912F910F900FBEDA
:103A10000F901F9018951F920F920FB60F921124BE
:103A20000F931F932F933F934F935F936F937F93C6
:103A30008F939F93AF93BF93EF93FF93DF93CF93B6
:103A4000CDB7DEB78091780190917901019690937E
:103A50007901809378018091A2019091A301A091B6
:103A6000A401B091A501BC01CD010E94C800DC01F8
:103A7000CB019C0180917801909179012817390739
:103A800079F5E0917601F0917701099504E410E071
:103A90008091A6019091A701A091A801B091A901E0
:103AA000BC01CD0120E030E040E853EC0E947A03F5
:103AB000DC01CB01BC01CD0120E030E040E853E463
:103AC0000E944D03DC01CB01BC01CD010E94C80066
:103AD000DC01CB01F801808310927901109278010A
:103AE000CF91DF91FF91EF91BF91AF919F918F9116
:103AF0007F916F915F914F913F912F911F910F9106
:103B00000F900FBE0F901F9018951F920F920FB637
:103B10000F921124DF93CF93CDB7DEB7CF91DF9112
:103B20000F900FBE0F901F9018951F920F920FB617
:103B30000F9211242F933F934F935F936F937F9333
:103B40008F939F93AF93BF93EF93FF93DF93CF93A5
:103B5000CDB7DEB780917A0190917B01009729F073
:103B6000E0917A01F0917B010995CF91DF91FF916E
:103B7000EF91BF91AF919F918F917F916F915F91E5
:103B80004F913F912F910F900FBE0F901F9018955E
:103B9000DF93CF9300D0CDB7DEB79A838983898135
:103BA0009A819093AB018093AA010F900F90CF91CF
:103BB000DF910895DF93CF930F92CDB7DEB783E007
:103BC00060E040E00E944F0983E061E041E00E9434
:103BD0004F09AAE2B0E0EAE2F0E0808180618C93D4
:103BE000AAE2B0E0EAE2F0E0808188608C93AAE289
:103BF000B0E0EAE2F0E080818B7F8C9380E88983FB
:103C000089818F7B898389818F7D898389818F7E5B
:103C100089838981877F8983898184608983898178
:103C20008260898389818E7F8983E0E4F0E08981E5
:103C30008083E0E4F0E01082E9E2F0E083E3808357
:103C40000F90CF91DF910895DF93CF930F92CDB76F
:103C5000DEB783E060E040E00E944F0983E061E06E
:103C600041E00E944F09AAE2B0E0EAE2F0E0808180
:103C700080688C93AAE2B0E0EAE2F0E080818061A3
:103C80008C93AAE2B0E0EAE2F0E0808188608C9355
:103C9000AAE2B0E0EAE2F0E080818B7F8C9380E8DA
:103CA000898389818F7B898389818F7D89838981BC
:103CB0008F7E89838981877F8983898184608983D5
:103CC00089818260898389818E7F8983E0E4F0E045
:103CD00089818083E0E4F0E01082E9E2F0E083E3B0
:103CE00080830F90CF91DF910895DF93CF930F9250
:103CF000CDB7DEB78983EBE2F0E0808182958695CF
:103D00008770882F90E0817090700097A1F3ECE2AB
:103D1000F0E0898180830F90CF91DF910895DF9348
:103D2000CF93CDB7DEB7ECE2F0E08081CF91DF91A9
:103D30000895DF93CF93CDB7DEB7EBE2F0E080815B
:103D40008823DCF7ECE2F0E08081CF91DF910895E9
:103D5000DF93CF9300D00F92CDB7DEB79B838A83DA
:103D600019820EC08981282F30E08A819B81FC0155
:103D7000E20FF31F80810E94751E89818F5F898306
:103D80008981282F30E08A819B81FC01E20FF31F9B
:103D90008081882339F70F900F900F90CF91DF919A
:103DA00008951F920F920FB60F9211242F933F93F5
:103DB0004F935F936F937F938F939F93AF93BF9333
:103DC000EF93FF93DF93CF93CDB7DEB7E091AA01D6
:103DD000F091AB010995CF91DF91FF91EF91BF91E8
:103DE000AF919F918F917F916F915F914F913F9193
:103DF0002F910F900FBE0F901F901895DF93CF93C8
:103E0000CDB7DEB70E94DA1DCF91DF910895DF9321
:103E1000CF93CDB7DEB70E94991E882F90E0CF9147
:103E2000DF910895DF93CF93CDB7DEB70E94241EB4
:103E3000CF91DF910895DF93CF93CDB7DEB70E9486
:103E40008F1E882F90E0CF91DF910895DF93CF935D
:103E50000F92CDB7DEB7898389810E94751E0F90BE
:103E6000CF91DF910895DF93CF9300D0CDB7DEB728
:103E70009A83898389819A810E94A81E0F900F904E
:103E8000CF91DF910895DF93CF9300D0CDB7DEB708
:103E90009A83898389819A810E94C81D0F900F900F
:103EA000CF91DF910895DF93CF93CDB7DEB780E058
:103EB00060E041E00E944F0980E061E041E00E9443
:103EC0004F0980E062E041E00E944F0980E063E03A
:103ED00041E00E944F0980E060E040E00E94900ACB
:103EE00080E061E040E00E94900A80E062E040E013
:103EF0000E94900A80E063E040E00E94900A0E94E5
:103F00007017CF91DF910895DF93CF9300D00F9278
:103F1000CDB7DEB789838981282F30E03B832A83A0
:103F20008A819B8181309105A1F02A813B812230D9
:103F30003105D1F08A819B81009701F580E060E036
:103F400040E00E94900A80E061E040E00E94900A18
:103F500015C080E060E040E00E94900A80E061E0EF
:103F600041E00E94900A0AC080E060E041E00E94C7
:103F7000900A80E061E040E00E94900A0F900F906C
:103F80000F90CF91DF910895DF93CF9300D00F92E0
:103F9000CDB7DEB789838981282F30E03B832A8320
:103FA0008A819B8181309105A1F02A813B81223059
:103FB0003105D1F08A819B81009701F580E062E0B4
:103FC00040E00E94900A80E063E040E00E94900A96
:103FD00015C080E062E040E00E94900A80E063E06B
:103FE00041E00E94900A0AC080E062E041E00E9445
:103FF000900A80E063E040E00E94900A0F900F90EA
:104000000F90CF91DF910895DF93CF93CDB7DEB7B7
:1040100081E060E040E00E944F0981E061E040E023
:104020000E944F09CF91DF910895DF93CF93CDB7D1
:10403000DEB783E065E041E00E944F098EE062E078
:1040400040E00E947B15CF91DF910895DF93CF93DD
:10405000CDB7DEB783E064E041E00E944F098FE016
:1040600060E042E00E947B15CF91DF910895DF93DD
:10407000CF9300D0CDB7DEB79A8389838FE19EE4DA
:104080000E94D71689819A810E94A9160F900F90DD
:10409000CF91DF910895DF93CF9300D0CDB7DEB7F6
:1040A0009A8389838FE19EE40E94A91689819A816F
:1040B0000E94C0160F900F90CF91DF910895DF936B
:1040C000CF93CDB7DEB7A4970FB6F894DEBF0FBE7F
:1040D000CDBF9AA389A37CA36BA329A13AA18BA1ED
:1040E0009CA18217930708F489C089A19AA198A37B
:1040F0008F8F7BC08F8D98A10E944B2080E090E035
:10410000A0E8BFE3898F9A8FAB8FBC8F698D7A8DC2
:104110008B8D9C8D20E030E04AEF54E40E947A03BE
:10412000DC01CB018D8B9E8BAF8BB88F6D897E8927
:104130008F89988D20E030E040E85FE30E948005A1
:1041400088232CF481E090E09C8B8B8B3FC06D89A1
:104150007E898F89988D20E03FEF4FE757E40E94DA
:10416000200518164CF5698D7A8D8B8D9C8D20E07D
:1041700030E040E251E40E947A03DC01CB01BC0153
:10418000CD010E94C800DC01CB019C8B8B8B0FC042
:1041900088EC90E09A8B898B89899A890197F1F74D
:1041A0009A8B898B8B899C8901979C8B8B8B8B89B4
:1041B0009C89009769F714C06D897E898F89988DD5
:1041C0000E94C800DC01CB019C8B8B8B8B899C8966
:1041D000988B8F878F8598890197F1F7988B8F87B8
:1041E0008F8D98A1059698A38F8F2F8D38A18BA1C5
:1041F0009CA12817390708F47DCF88C089A19AA10E
:104200009E8F8D8F7BC08D8D9E8D0E944B2080E078
:1042100090E0A0E8BFE38B879C87AD87BE876B8566
:104220007C858D859E8520E030E04AEF54E40E9435
:104230007A03DC01CB018F839887A987BA876F81C6
:10424000788589859A8520E030E040E85FE30E9428
:10425000800588232CF481E090E09E838D833FC00D
:104260006F81788589859A8520E03FEF4FE757E495
:104270000E94200518164CF56B857C858D859E85E2
:1042800020E030E040E251E40E947A03DC01CB01FF
:10429000BC01CD010E94C800DC01CB019E838D834F
:1042A0000FC088EC90E09C838B838B819C8101976D
:1042B000F1F79C838B838D819E8101979E838D83F3
:1042C0008D819E81009769F714C06F8178858985FB
:1042D0009A850E94C800DC01CB019E838D838D816D
:1042E0009E819A83898389819A810197F1F79A83C4
:1042F00089838D8D9E8D05979E8F8D8F2D8D3E8D03
:104300008BA19CA18217930708F47DCFA4960FB6CA
:10431000F894DEBF0FBECDBFCF91DF910895DF933C
:10432000CF93CDB7DEB78091AC018F5F8093AC01A6
:104330008091AC01813031F40E94651780E00E94C9
:104340003B170DC08091AC01823049F40E945A178E
:104350009093AE018093AD0181E00E943B17CF9115
:10436000DF910895DF93CF93CDB7DEB768970FB68F
:10437000F894DEBF0FBECDBF81E065E041E00E9452
:10438000900A80E090E0A0E2B1E48D8B9E8BAF8B31
:10439000B88F6D897E898F89988D2BEA3AEA4AE237
:1043A00050E40E947A03DC01CB01898B9A8BAB8BA2
:1043B000BC8B69897A898B899C8920E030E040E850
:1043C0005FE30E94800588231CF481E0888B91C004
:1043D00069897A898B899C8920E030E04FE753E432
:1043E0000E94200518160CF07BC06D897E898F898C
:1043F000988D20E030E04AE754E40E947404DC0128
:10440000CB018C879D87AE87BF876C857D858E8528
:104410009F8520E030E04AEF54E40E947A03DC01FB
:10442000CB0188879987AA87BB87688579858A8524
:104430009B8520E030E040E85FE30E948005882310
:104440002CF481E090E09F838E833FC0688579855E
:104450008A859B8520E03FEF4FE757E40E942005C7
:1044600018164CF56C857D858E859F8520E030E0A3
:1044700040E251E40E947A03DC01CB01BC01CD0192
:104480000E94C800DC01CB019F838E830FC088ECA3
:1044900090E09D838C838C819D810197F1F79D83B2
:1044A0008C838E819F8101979F838E838E819F81D4
:1044B000009769F724C0688579858A859B850E9465
:1044C000C800DC01CB019F838E838E819F819B83FB
:1044D0008A838A819B810197F1F79B838A830FC02E
:1044E00069897A898B899C890E94C800DC01CB018B
:1044F000888B8889898389818A95F1F7898381E00E
:1045000065E040E00E94900A68960FB6F894DEBF1E
:104510000FBECDBFCF91DF910895DF93CF93CDB77D
:10452000DEB70E944B0F0E94EE1681E065E041E08D
:104530000E944F098FE891E20E942917CF91DF91E5
:104540000895DF93CF93CDB7DEB71092AF011092ED
:10455000AC011092AE011092AD010E9465170E944D
:10456000B2218091AC018230E1F78091AD01909150
:10457000AE012AE330E0B9010E94782ECB0180938E
:10458000AF018091AF01882F90E0CF91DF91089526
:10459000DF93CF93CDB7DEB70E94FE1E0E94531F5C
:1045A0000E9404200E9426200E948D220E944B0F10
:1045B000CF91DF910895DF93CF9300D00F92CDB7C5
:1045C000DEB789838981282F30E03B832A838A8163
:1045D0009B8182339105D1F02A813B8123333105C0
:1045E00034F48A819B818133910561F01AC02A815C
:1045F0003B812333310571F08A819B81843391059E
:1046000069F00FC089E10E946D230BC082E30E9414
:104610006D2307C08BE40E946D2303C084E60E94D3
:104620006D230F900F900F90CF91DF910895DF933E
:10463000CF9300D00F92CDB7DEB70E94071F8983BA
:104640008981282F30E03B832A838A819B818336AE
:10465000910549F12A813B81243631055CF48A8138
:104660009B818136910589F02A813B812236310573
:1046700099F02DC08A819B8184369105D9F02A81D9
:104680003B8125363105E9F022C082E00E94841F7B
:1046900082E00E94C41F1BC081E00E94841F81E051
:1046A0000E94C41F14C080E00E94841F81E00E9409
:1046B000C41F0DC081E00E94841F80E00E94C41FBF
:1046C00006C080E00E94841F80E00E94C41F0F90FB
:1046D0000F900F90CF91DF910895DF93CF930F92BA
:1046E000CDB7DEB7898389810E94B81C0F90CF9126
:1046F000DF910895DF93CF93CDB7DEB70E94071FF8
:10470000CF91DF910895DF93CF9300D0CDB7DEB77F
:1047100081E061E00E944E0C8A8381E060E00E94AB
:104720004E0C89838A81882351F48981882339F446
:1047300082E00E94841F82E00E94C41F20C08A8100
:10474000882351F08981882339F482E00E94841FF4
:1047500081E00E94C41F13C08A81882351F489819B
:10476000882339F081E00E94841F82E00E94C41FE8
:1047700006C080E00E94841F80E00E94C41F0F904A
:104780000F90CF91DF9108950F931F93DF93CF93F5
:10479000CDB7DEB7C654D0400FB6F894DEBF0FBE1B
:1047A000CDBF82E30E946D238CED95E00E944B20EB
:1047B00082E00E94841F82E00E94C41F0E94A12206
:1047C0009093B1018093B0018091B0019091B101BB
:1047D0008431910508F08AC280E00E94841F80E045
:1047E0000E94C41FFE01ED5BFF4F80E090E0AAEF46
:1047F000B3E480839183A283B3838E01015C1F4F56
:10480000FE01ED5BFF4F608171818281938120E029
:1048100030E04AEF54E40E947A03DC01CB01F80156
:1048200080839183A283B383FE01FF9660817181AF
:104830008281938120E030E040E85FE30E948005C0
:1048400088232CF481E090E09EAF8DAF46C0FE013E
:10485000FF96608171818281938120E03FEF4FE775
:1048600057E40E942005181664F5FE01ED5BFF4F2A
:10487000608171818281938120E030E040E251E4E7
:104880000E947A03DC01CB01BC01CD010E94C8006B
:10489000DC01CB019EAF8DAF0FC088EC90E09CAFE8
:1048A0008BAF8BAD9CAD0197F1F79CAF8BAF8DAD0E
:1048B0009EAD01979EAF8DAF8DAD9EAD009769F710
:1048C00016C0FE01FF9660817181828193810E94F2
:1048D000C800DC01CB019EAF8DAF8DAD9EAD9AAF10
:1048E00089AF89AD9AAD0197F1F79AAF89AF8CED99
:1048F00095E060E971E00E945F2080E090E0AAEF1F
:10490000B3E48DAB9EABAFABB8AF6DA97EA98FA959
:1049100098AD20E030E04AEF54E40E947A03DC01D5
:10492000CB0189AB9AABABABBCAB69A97AA98BA91C
:104930009CA920E030E040E85FE30E9480058823E6
:104940002CF481E090E098AB8FA73FC069A97AA9C9
:104950008BA99CA920E03FEF4FE757E40E94200578
:1049600018164CF56DA97EA98FA998AD20E030E00E
:1049700040E251E40E947A03DC01CB01BC01CD018D
:104980000E94C800DC01CB0198AB8FA70FC088EC58
:1049900090E09EA78DA78DA59EA50197F1F79EA7F4
:1049A0008DA78FA598A9019798AB8FA78FA598A9D8
:1049B000009769F714C069A97AA98BA99CA90E94DC
:1049C000C800DC01CB0198AB8FA78FA598A99CA745
:1049D0008BA78BA59CA50197F1F79CA78BA780E9D6
:1049E00091E00E944B2080E090E0AAEFB3E48FA317
:1049F00098A7A9A7BAA76FA178A589A59AA520E02D
:104A000030E04AEF54E40E947A03DC01CB018BA32F
:104A10009CA3ADA3BEA36BA17CA18DA19EA120E010
:104A200030E040E85FE30E94800588232CF481E0B9
:104A300090E09AA389A33FC06BA17CA18DA19EA108
:104A400020E03FEF4FE757E40E94200518164CF591
:104A50006FA178A589A59AA520E030E040E251E455
:104A60000E947A03DC01CB01BC01CD010E94C80089
:104A7000DC01CB019AA389A30FC088EC90E098A336
:104A80008F8F8F8D98A10197F1F798A38F8F89A1B0
:104A90009AA101979AA389A389A19AA1009769F77E
:104AA00014C06BA17CA18DA19EA10E94C800DC0155
:104AB000CB019AA389A389A19AA19E8F8D8F8D8DF9
:104AC0009E8D0197F1F79E8F8D8F0E94A12290936A
:104AD000B1018093B0018091B0019091B101843116
:104AE000910508F001C180E991E060E679E00E945B
:104AF0005F2080E090E0AAEFB3E4898F9A8FAB8FBC
:104B0000BC8F698D7A8D8B8D9C8D20E030E04AEFD3
:104B100054E40E947A03DC01CB018D8B9E8BAF8B1A
:104B2000B88F6D897E898F89988D20E030E040E8CC
:104B30005FE30E94800588232CF481E090E09C8B49
:104B40008B8B3FC06D897E898F89988D20E03FEFE8
:104B50004FE757E40E94200518164CF5698D7A8DB1
:104B60008B8D9C8D20E030E040E251E40E947A037E
:104B7000DC01CB01BC01CD010E94C800DC01CB01EE
:104B80009C8B8B8B0FC088EC90E09A8B898B8989EA
:104B90009A890197F1F79A8B898B8B899C89019768
:104BA0009C8B8B8B8B899C89009769F714C06D89CE
:104BB0007E898F89988D0E94C800DC01CB019C8B77
:104BC0008B8B8B899C89988B8F878F859889019790
:104BD000F1F7988B8F8780E699E00E944B2080E068
:104BE00090E0AAEFB3E48B879C87AD87BE876B8587
:104BF0007C858D859E8520E030E04AEF54E40E945C
:104C00007A03DC01CB018F839887A987BA876F81EC
:104C1000788589859A8520E030E040E85FE30E944E
:104C2000800588232CF481E090E09E838D833FC033
:104C30006F81788589859A8520E03FEF4FE757E4BB
:104C40000E94200518164CF56B857C858D859E8508
:104C500020E030E040E251E40E947A03DC01CB0125
:104C6000BC01CD010E94C800DC01CB019E838D8375
:104C70000FC088EC90E09C838B838B819C81019793
:104C8000F1F79C838B838D819E8101979E838D8319
:104C90008D819E81009769F714C06F817885898521
:104CA0009A850E94C800DC01CB019E838D838D8193
:104CB0009E819A83898389819A810197F1F79A83EA
:104CC00089830E94A1229093B1018093B0018091C9
:104CD000B0019091B1018431910518F40E948A29A4
:104CE00005C00E94062802C00E948226CA5BDF4FD0
:104CF0000FB6F894DEBF0FBECDBFCF91DF911F91ED
:104D00000F910895DF93CF93CDB7DEB7AA970FB673
:104D1000F894DEBF0FBECDBF80E991E06CED75E089
:104D20000E945F2080E090E0AAEFB3E48FA398A7F1
:104D3000A9A7BAA76FA178A589A59AA520E030E018
:104D40004AEF54E40E947A03DC01CB018BA39CA3BD
:104D5000ADA3BEA36BA17CA18DA19EA120E030E0FC
:104D600040E85FE30E94800588232CF481E090E016
:104D70009AA389A33FC06BA17CA18DA19EA120E035
:104D80003FEF4FE757E40E94200518164CF56FA13E
:104D900078A589A59AA520E030E040E251E40E9480
:104DA0007A03DC01CB01BC01CD010E94C800DC010B
:104DB000CB019AA389A30FC088EC90E098A38F8FB2
:104DC0008F8D98A10197F1F798A38F8F89A19AA150
:104DD00001979AA389A389A19AA1009769F714C0A2
:104DE0006BA17CA18DA19EA10E94C800DC01CB011A
:104DF0009AA389A389A19AA19E8F8D8F8D8D9E8D57
:104E00000197F1F79E8F8D8F81E00E94841F81E0D2
:104E10000E94C41F80E090E0A8E4B3E4898F9A8FD9
:104E2000AB8FBC8F698D7A8D8B8D9C8D20E030E0AF
:104E30004AEF54E40E947A03DC01CB018D8B9E8BF8
:104E4000AF8BB88F6D897E898F89988D20E030E097
:104E500040E85FE30E94800588232CF481E090E025
:104E60009C8B8B8B3FC06D897E898F89988D20E0CC
:104E70003FEF4FE757E40E94200518164CF5698D67
:104E80007A8D8B8D9C8D20E030E040E251E40E94D1
:104E90007A03DC01CB01BC01CD010E94C800DC011A
:104EA000CB019C8B8B8B0FC088EC90E09A8B898B0D
:104EB00089899A890197F1F79A8B898B8B899C89CB
:104EC00001979C8B8B8B8B899C89009769F714C009
:104ED0006D897E898F89988D0E94C800DC01CB0185
:104EE0009C8B8B8B8B899C89988B8F878F859889DE
:104EF0000197F1F7988B8F878BE40E94B81C80E0B4
:104F00000E94841F81E00E94C41F80E090E0A8EC12
:104F1000B3E48B879C87AD87BE876B857C858D8549
:104F20009E8520E030E04AEF54E40E947A03DC01E1
:104F3000CB018F839887A987BA876F817885898508
:104F40009A8520E030E040E85FE30E9480058823F6
:104F50002CF481E090E09E838D833FC06F81788543
:104F600089859A8520E03FEF4FE757E40E942005AE
:104F700018164CF56B857C858D859E8520E030E08C
:104F800040E251E40E947A03DC01CB01BC01CD0177
:104F90000E94C800DC01CB019E838D830FC088EC8A
:104FA00090E09C838B838B819C810197F1F79C839C
:104FB0008B838D819E8101979E838D838D819E81C0
:104FC000009769F714C06F81788589859A850E945A
:104FD000C800DC01CB019E838D838D819E819A83E5
:104FE000898389819A810197F1F79A83898380E087
:104FF0000E94841F80E00E94C41FAA960FB6F894F6
:10500000DEBF0FBECDBFCF91DF910895DF93CF9369
:10501000CDB7DEB7AA970FB6F894DEBF0FBECDBFEF
:1050200080E699E06CED75E00E945F2080E090E002
:10503000AAEFB3E48FA398A7A9A7BAA76FA178A5F1
:1050400089A59AA520E030E04AEF54E40E947A0353
:10505000DC01CB018BA39CA3ADA3BEA36BA17CA160
:105060008DA19EA120E030E040E85FE30E94800532
:1050700088232CF481E090E09AA389A33FC06BA120
:105080007CA18DA19EA120E03FEF4FE757E40E9455
:10509000200518164CF56FA178A589A59AA520E0E2
:1050A00030E040E251E40E947A03DC01CB01BC0114
:1050B000CD010E94C800DC01CB019AA389A30FC0D7
:1050C00088EC90E098A38F8F8F8D98A10197F1F7CE
:1050D00098A38F8F89A19AA101979AA389A389A1E7
:1050E0009AA1009769F714C06BA17CA18DA19EA124
:1050F0000E94C800DC01CB019AA389A389A19AA1CF
:105100009E8F8D8F8D8D9E8D0197F1F79E8F8D8F48
:1051100081E00E94841F81E00E94C41F80E090E033
:10512000A8E4B3E4898F9A8FAB8FBC8F698D7A8D99
:105130008B8D9C8D20E030E04AEF54E40E947A038E
:10514000DC01CB018D8B9E8BAF8BB88F6D897E89F7
:105150008F89988D20E030E040E85FE30E94800571
:1051600088232CF481E090E09C8B8B8B3FC06D8971
:105170007E898F89988D20E03FEF4FE757E40E94AA
:10518000200518164CF5698D7A8D8B8D9C8D20E04D
:1051900030E040E251E40E947A03DC01CB01BC0123
:1051A000CD010E94C800DC01CB019C8B8B8B0FC012
:1051B00088EC90E09A8B898B89899A890197F1F71D
:1051C0009A8B898B8B899C8901979C8B8B8B8B8984
:1051D0009C89009769F714C06D897E898F89988DA5
:1051E0000E94C800DC01CB019C8B8B8B8B899C8936
:1051F000988B8F878F8598890197F1F7988B8F8788
:105200008BE40E94B81C81E00E94841F80E00E9411
:10521000C41F80E090E0A1EEB3E48B879C87AD874C
:10522000BE876B857C858D859E8520E030E04AEFCA
:1052300054E40E947A03DC01CB018F839887A9870D
:10524000BA876F81788589859A8520E030E040E8CB
:105250005FE30E94800588232CF481E090E09E8328
:105260008D833FC06F81788589859A8520E03FEFE7
:105270004FE757E40E94200518164CF56B857C8596
:105280008D859E8520E030E040E251E40E947A0363
:10529000DC01CB01BC01CD010E94C800DC01CB01C7
:1052A0009E838D830FC088EC90E09C838B838B81E1
:1052B0009C810197F1F79C838B838D819E8101975F
:1052C0009E838D838D819E81009769F714C06F81C5
:1052D000788589859A850E94C800DC01CB019E8370
:1052E0008D838D819E819A83898389819A8101979B
:1052F000F1F79A83898380E00E94841F80E00E94F6
:10530000C41FAA960FB6F894DEBF0FBECDBFCF91D3
:10531000DF910895DF93CF93CDB7DEB72E970FB609
:10532000F894DEBF0FBECDBF8CED95E00E944B2000
:1053300080E00E94841F80E00E94C41F80E090E013
:10534000AAEFB4E48B879C87AD87BE876B857C858D
:105350008D859E8520E030E04AEF54E40E947A0378
:10536000DC01CB018F839887A987BA876F81788505
:1053700089859A8520E030E040E85FE30E9480055F
:1053800088232CF481E090E09E838D833FC06F8161
:10539000788589859A8520E03FEF4FE757E40E94A2
:1053A000200518164CF56B857C858D859E8520E043
:1053B00030E040E251E40E947A03DC01CB01BC0101
:1053C000CD010E94C800DC01CB019E838D830FC0FC
:1053D00088EC90E09C838B838B819C810197F1F713
:1053E0009C838B838D819E8101979E838D838D818C
:1053F0009E81009769F714C06F81788589859A85A9
:105400000E94C800DC01CB019E838D838D819E812B
:105410009A83898389819A810197F1F79A83898395
:105420002E960FB6F894DEBF0FBECDBFCF91DF91A1
:105430000895DF93CF93CDB7DEB72B970FB6F894CF
:10544000DEBF0FBECDBF81E08B871A8681E08987E2
:10545000188681E08F831E8281E08D8381E08C83BA
:105460001B820E947A238093B4018091B40185331A
:10547000C0F78091B4018033A0F38091B4018053D0
:105480008093B4010E947A238093B5018091B50185
:105490008533C0F78091B5018033A0F38091B501C9
:1054A00080538093B5019091B5018091B301981715
:1054B00040F48D81882329F00E94132D81E0888794
:1054C00019869091B4018091B201981738F48C81BB
:1054D000882321F081E08E831F821C8289858823A6
:1054E00019F08F81882331F48985882331F48F81E5
:1054F000882319F481E08D8377C08985882319F08A
:105500008F81882341F08985882309F06DC08F81C0
:10551000882309F469C01D8267C081E061E00E94B0
:105520004E0C8A8381E060E00E944E0C898382E009
:105530000E94841F82E00E94C41F8A81882309F48C
:1055400053C08981882309F44FC00E94A42D8B8504
:10555000882391F08985882331F08091B3018F5F92
:105560008093B3011AC088858823B9F08091B30174
:1055700081508093B30111C08F81882331F08091D5
:10558000B2018F5F8093B20108C08E81882329F019
:105590008091B20181508093B2019091B3018091CA
:1055A000B501981771F48B85882359F08D81882374
:1055B00019F00E94012B02C00E940A2C1B8681E078
:1055C0008A879091B2018091B401981769F48A8515
:1055D000882351F08C81882319F00E940A2C02C084
:1055E0000E94012B81E08B838B81813009F095CF64
:1055F0002B960FB6F894DEBF0FBECDBFCF91DF91D3
:105600000895DF93CF93CDB7DEB76C970FB6F894BC
:10561000DEBF0FBECDBF82E00E94841F82E00E94E9
:10562000C41F80E090E0A2E0B3E4898F9A8FAB8F33
:10563000BC8F698D7A8D8B8D9C8D20E030E04AEF98
:1056400054E40E947A03DC01CB018D8B9E8BAF8BDF
:10565000B88F6D897E898F89988D20E030E040E891
:105660005FE30E94800588232CF481E090E09C8B0E
:105670008B8B3FC06D897E898F89988D20E03FEFAD
:105680004FE757E40E94200518164CF5698D7A8D76
:105690008B8D9C8D20E030E040E251E40E947A0343
:1056A000DC01CB01BC01CD010E94C800DC01CB01B3
:1056B0009C8B8B8B0FC088EC90E09A8B898B8989AF
:1056C0009A890197F1F79A8B898B8B899C8901972D
:1056D0009C8B8B8B8B899C89009769F714C06D8993
:1056E0007E898F89988D0E94C800DC01CB019C8B3C
:1056F0008B8B8B899C89988B8F878F859889019755
:10570000F1F7988B8F8782E00E94841F81E00E94CE
:10571000C41F80E090E8ADE1B4E48B879C87AD873F
:10572000BE876B857C858D859E8520E030E04AEFC5
:1057300054E40E947A03DC01CB018F839887A98708
:10574000BA876F81788589859A8520E030E040E8C6
:105750005FE30E94800588232CF481E090E09E8323
:105760008D833FC06F81788589859A8520E03FEFE2
:105770004FE757E40E94200518164CF56B857C8591
:105780008D859E8520E030E040E251E40E947A035E
:10579000DC01CB01BC01CD010E94C800DC01CB01C2
:1057A0009E838D830FC088EC90E09C838B838B81DC
:1057B0009C810197F1F79C838B838D819E8101975A
:1057C0009E838D838D819E81009769F714C06F81C0
:1057D000788589859A850E94C800DC01CB019E836B
:1057E0008D838D819E819A83898389819A81019796
:1057F000F1F79A83898380E00E94841F80E00E94F1
:10580000C41F6C960FB6F894DEBF0FBECDBFCF910C
:10581000DF910895DF93CF93CDB7DEB76C970FB6C6
:10582000F894DEBF0FBECDBF82E00E94841F82E0ED
:105830000E94C41F80E090E0A2E0B3E4898F9A8FB9
:10584000AB8FBC8F698D7A8D8B8D9C8D20E030E085
:105850004AEF54E40E947A03DC01CB018D8B9E8BCE
:10586000AF8BB88F6D897E898F89988D20E030E06D
:1058700040E85FE30E94800588232CF481E090E0FB
:105880009C8B8B8B3FC06D897E898F89988D20E0A2
:105890003FEF4FE757E40E94200518164CF5698D3D
:1058A0007A8D8B8D9C8D20E030E040E251E40E94A7
:1058B0007A03DC01CB01BC01CD010E94C800DC01F0
:1058C000CB019C8B8B8B0FC088EC90E09A8B898BE3
:1058D00089899A890197F1F79A8B898B8B899C89A1
:1058E00001979C8B8B8B8B899C89009769F714C0DF
:1058F0006D897E898F89988D0E94C800DC01CB015B
:105900009C8B8B8B8B899C89988B8F878F859889B3
:105910000197F1F7988B8F8781E00E94841F82E0C6
:105920000E94C41F80E090ECA3E2B4E48B879C87C4
:10593000AD87BE876B857C858D859E8520E030E0B8
:105940004AEF54E40E947A03DC01CB018F839887ED
:10595000A987BA876F81788589859A8520E030E0AC
:1059600040E85FE30E94800588232CF481E090E00A
:105970009E838D833FC06F81788589859A8520E0DD
:105980003FEF4FE757E40E94200518164CF56B8552
:105990007C858D859E8520E030E040E251E40E94C8
:1059A0007A03DC01CB01BC01CD010E94C800DC01FF
:1059B000CB019E838D830FC088EC90E09C838B830A
:1059C0008B819C810197F1F79C838B838D819E81D4
:1059D00001979E838D838D819E81009769F714C006
:1059E0006F81788589859A850E94C800DC01CB018A
:1059F0009E838D838D819E819A83898389819A81FB
:105A00000197F1F79A83898380E00E94841F80E0E8
:105A10000E94C41F6C960FB6F894DEBF0FBECDBFB8
:105A2000CF91DF910895DF93CF93CDB7DEB72E9757
:105A30000FB6F894DEBF0FBECDBF82E00E94841F78
:105A400081E00E94C41F80E090E2A3EAB4E48B8767
:105A50009C87AD87BE876B857C858D859E8520E084
:105A600030E04AEF54E40E947A03DC01CB018F83DB
:105A70009887A987BA876F81788589859A8520E07C
:105A800030E040E85FE30E94800588232CF481E049
:105A900090E09E838D833FC06F81788589859A854C
:105AA00020E03FEF4FE757E40E94200518164CF521
:105AB0006B857C858D859E8520E030E040E251E459
:105AC0000E947A03DC01CB01BC01CD010E94C80019
:105AD000DC01CB019E838D830FC088EC90E09C831A
